:020000040000FA
:060000000A128A110C280F
:10000800FE00030EF1000A08F2000A168A15892E6E
:100018000A128A110F28F801F901FA018312031351
:10002800EE01EF018313BF308400D9300A168A1518
:1000380071250A128A1183010A128A11682E831601
:1000480003133A083904380403192B282C28EA2802
:10005800380883120313C800831603133908831260
:100068000313C900831603133A0883120313CA0043
:100078000A168A1143230A128A11831203134B08A2
:100088004A0449044804031D4A284B28EA288316D1
:1000980003133708803AFF0080307F02031D56287B
:1000A80002303602031C59285A28EA2883160313FB
:1000B8002E0883120313A000831603132F0883123C
:1000C8000313A10083160313300883120313A2003D
:1000D8007030A3008930A4004030A5000A168A15A4
:1000E80006270A128A1103187A287B288428F730F1
:1000F80083160313B6070318B70AFF30B7078C280F
:10010800F83083160313B6070318B70AFF30B7078A
:1001180036080A128A156D220A128A1183120313ED
:100128003F0883160313AE00831203134008831697
:100138000313AF0083120313410883160313B0009F
:10014800380883120313A000831603133908831297
:100158000313A100831603133A0883120313A200A2
:10016800831603132E0883120313A30083160313A5
:100178002F0883120313A400831603133008831275
:100188000313A5000A128A1507200A128A1183127E
:100198000313230883160313B500831203132208DD
:1001A80083160313B4008312031321088316031361
:1001B800B30083120313200883160313B200003020
:1001C800B8000030B9000030BA006729831603135D
:1001D800380883120313C8008316031339088312DF
:1001E8000313C900831603133A0883120313CA00C2
:1001F8000A168A1143230A128A11831203134B0821
:1002080083160313B500831203134A0883160313D6
:10021800B40083120313490883160313B30083122F
:100228000313480883160313B20035088312031317
:10023800A60083160313340883120313A50083163C
:100248000313330883120313A4008316031332081D
:1002580083120313A3000A168A11A9200A128A110D
:10026800831203132308DC002408DD002508DE00C0
:1002780083160313380883120313DF00831603134E
:10028800390883120313E000831603133A08831214
:100298000313E1000A168A153E260A128A118312F0
:1002A80003135C0883160313B800831203135D0855
:1002B80083160313B900831203135E08831603130E
:1002C800BA00B601B701BE01BE0A3E08A00001305F
:1002D8000310A00DFF3E031D6C290310200D4F3E97
:1002E80084000A168A110A200A128A11A1000A1625
:1002F8008A110A200A128A11A2000A168A110A20F3
:100308000A128A11A3000A168A110A200A128A11EF
:10031800A40024083502031D9B2923083402031D69
:100328009B2922083302031D9B2921083202031846
:100338009E299F29A029AA290130A0002008BE07CC
:100348000A303E06031DA929AA2969293E083C0747
:10035800A0003D0803183D0AA10036082007A200A6
:1003680037080318370A2107A3002208AC0223081C
:10037800031CAD03AD023C083D040319C429C5297B
:10038800CB29FF30AC070318AD0AFF30AD070330A7
:100398002A05A00000302B05A1002008210403191C
:1003A800D629D729EC29FF30AC070318AD0AFF304E
:1003B800AD07EC29203083160313A0003B08840006
:1003C8002008831380000130A0002008BB07D7292C
:1003D8002D08803AFF0080307F02031DF529013087
:1003E8002C020318F829F929DE2903308316031390
:1003F8002A05A00000302B05A100200821040319BC
:10040800062A072AB92A2D30A0003B0884002008B4
:10041800831380000130A0002008BB07B92A3E08DA
:10042800A00001300310A00DFF3E031D162A031083
:10043800200D4F3E84000A168A110A200A128A11DA
:1004480083120313A0000A168A110A200A128A11BD
:10045800A1000A168A110A200A128A11A2000A1695
:100468008A110A200A128A11A30083160313350879
:1004780083120313A700831603133408831203138C
:10048800A60083160313330883120313A5008316EB
:100498000313320883120313A4000A168A11782161
:1004A8000A128A1183120313230883160313B10057
:1004B80083120313220883160313B0008312031355
:1004C800210883160313AF00831203132008831631
:1004D8000313AE00003083120313B0000030AF00E6
:1004E8000030AE000A30AD008316031331088312C2
:1004F8000313B40083160313300883120313B300E5
:10050800831603132F0883120313B20083160313F1
:100518002E0883120313B1000A168A1122210A1227
:100528008A1183120313300883160313B100831250
:1005380003132F0883160313B000831203132E0826
:1005480083160313AF00831203132D0883160313B6
:10055800AE002E08303EA0003B088400200883131C
:1005680080000130A0002008BB070130BE023E0A0F
:10057800031DBF2AC02A132AD42A30308316031336
:10058800A0003B0884002008831380000130A000ED
:100598002008BB07FF30B6070318B70AFF30B707B4
:1005A8003708803AFF0080307F02031DDD2A0130C2
:1005B80036020318E02AE12AC12A831603133D08EC
:1005C800803AFF0080307F02031DEC2A09303C028C
:1005D800031CEF2AF02AF72A083083160313A00019
:1005E8002008BE00FD2A831603133C08A00020083B
:1005F800BE003E08A000A1012008BC022108031C7F
:10060800BD03BD023E0803190A2B0B2B162B2E30F7
:10061800A0003B0884002008831380000130A0005C
:100628002008BB073E080A128A156D220A128A1191
:10063800831203133F0883160313A60083120313C0
:10064800400883160313A700831203134108831677
:100658000313A800260883120313B200831603139A
:10066800270883120313B300831603132808831281
:100678000313B40083160313380883120313AF005F
:1006880083160313390883120313B0008316031368
:100698003A0883120313B1000A168A11CF230A12EB
:1006A8008A11831203132F08C8003008C9003108C3
:1006B800CA000A168A1143230A128A1183120313E5
:1006C8004B0883160313B500831203134A088316D5
:1006D8000313B40083120313490883160313B300EA
:1006E80083120313480883160313B2007C2C3E08B8
:1006F800A00001300310A00DFF3E031D7E2B031048
:10070800200D4F3E84000A168A110A200A128A1107
:1007180083120313A0000A168A110A200A128A11EA
:10072800A1000A168A110A200A128A11A2000A16C2
:100738008A110A200A128A11A300831603133508A6
:1007480083120313A70083160313340883120313B9
:10075800A60083160313330883120313A500831618
:100768000313320883120313A4000A168A1178218E
:100778000A128A1183120313230883160313B10084
:1007880083120313220883160313B0008312031382
:10079800210883160313AF0083120313200883165E
:1007A8000313AE00003083120313B0000030AF0013
:1007B8000030AE000A30AD008316031331088312EF
:1007C8000313B40083160313300883120313B30012
:1007D800831603132F0883120313B200831603131F
:1007E8002E0883120313B1000A168A1122210A1255
:1007F8008A1183120313300883160313B10083127E
:1008080003132F0883160313B000831203132E0853
:1008180083160313AF00831203132D0883160313E3
:10082800AE002E08303EA0003B0884002008831349
:1008380080000130A0002008BB073E08A00001305E
:100848000310A00DFF3E031D242C0310200D4F3E66
:1008580084000A168A110A200A128A1183120313C5
:10086800AD000A168A110A200A128A11AE000A1669
:100878008A110A200A128A11AF000A168A110A2060
:100888000A128A11B0008316031335088312031362
:10089800B40083160313340883120313B3008316BA
:1008A8000313330883120313B200831603133208A9
:1008B80083120313B1000A168A1122210A128A111F
:1008C80083120313300883160313B500831203132E
:1008D8002F0883160313B400831203132E088316FC
:1008E8000313B300831203132D0883160313B200F6
:1008F8000130BE023E0A031D822C832C7B2B952CD3
:100908003030A0003B0884002008831380000130A9
:10091800A0002008BB07FF30BC070318BD0AFF3042
:10092800BD073C083D04031D9A2C9B2C842C4B2EA0
:100938002908840083130008A000840A0008A10085
:100948002008B2002108B3000030B31BFF30B40008
:10095800B5000230A0002008A907B51FB42CB52C9B
:10096800C42C0330AA040030AB04B209B309B4099B
:10097800B509B20A0319B30A0319B40A0319B50A67
:100988003C083D04031DC92CCA2CD82C3508340456
:1009980033043204031DD12CD22CD82C0130BC07CF
:1009A8000318BD0A0030BD07BE01BE0A3E08A000FC
:1009B80001300310A00DFF3E031DDD2C0310200D98
:1009C8004F3E84000A168A110A200A128A11A100D1
:1009D8000A168A110A200A128A11A2000A168A1116
:1009E8000A200A128A11A3000A168A110A200A127A
:1009F8008A11A40024083502031D0C2D2308340293
:100A0800031D0C2D22083302031D0C2D2108320270
:100A180003180F2D102D112D1B2D0130A0002008BB
:100A2800BE070A303E06031D1A2D1B2DDA2C3D0881
:100A3800803A803C031D222D3C083E020318252DD8
:100A4800262D2D2D831603133C08A0002008BE0078
:100A5800452D831603133D08803AA00080302002FC
:100A6800031D382D3E083C0203183B2D3C2D452D17
:100A7800831603133E08A000A1012008BC0021082A
:100A8800BD00831603132C082D0403194C2D4D2D7E
:100A98005F2D03302A05A00000302B05A100200897
:100AA80021040319582D592D5F2DFF30AC07031869
:100AB800AD0AFF30AD072B1F622D632D7E2D3D083B
:100AC800803AA0002D08803A2002031D6D2D2C08C5
:100AD8003C020318702D712D7A2D831603133C08E0
:100AE800AC023D08031CAD03AD027E2D8316031333
:100AF800AC01AD012D08803A803C031D852D2C08E2
:100B08003E020318882D892D952D831603133E0860
:100B1800A000A1012008AC022108031CAD03AD020E
:100B2800992D83160313AC01AD012C082D0403196C
:100B38009E2D9F2DB62D2030A0003B088400200854
:100B4800831380000130A0002008BB07FF30AC07EA
:100B58000318AD0AFF30AD072C082D04031DB52D71
:100B6800B62D9F2D03302A05A00000302B05A100CB
:100B7800200821040319C12DC22D3D2E2D30A000BF
:100B88003B0884002008831380000130A00020085F
:100B9800BB073D2E003083120313B0000030AF00B6
:100BA8000030AE000A30AD00831603133C08A000E5
:100BB80001300310A00DFF3E031DDD2D0310200D95
:100BC8004F3E84000A168A110A200A128A118312DB
:100BD8000313A0000A168A110A200A128A11A1001A
:100BE8000A168A110A200A128A11A2000A168A1104
:100BF8000A200A128A11A3008316031335088312E8
:100C08000313A70083160313340883120313A600E3
:100C180083160313330883120313A50083160313E3
:100C2800320883120313A4000A168A1178210A12C3
:100C38008A11831203132308B4002208B300210881
:100C4800B2002008B1000A168A1122210A128A115C
:100C5800831203132D08303E83160313A1002108C5
:100C6800BE003E08A0003B088400200883138000D3
:100C7800C92DFF30BC070318BD0AFF30BD073C0A69
:100C8800031D4A2E3D0A031D4A2E4B2ECE2D013040
:100C980083120313E207FF30620784000A168A11E1
:100CA8000A200A128A1183160313A0002008BE0026
:100CB8003E08031D602E632E0A128A15322D3B084A
:100CC80084008313800108000A168A15B8250A12C1
:100CD8008A110A128A1502200A128A110A168A151E
:100CE80079250A128A110A168A1569250A128A11A3
:100CF8000A168A1149220A128A110A168A15992592
:100D08000A128A110A168A1599250A128A11F701F8
:100D1800F70A01300A168A1563260A128A118830E2
:100D2800F6008030F7000A168A11DC200A128A11B0
:100D380000300A168A11B4240A128A118312031386
:100D4800EB006B08EF0001300A168A11B4240A126E
:100D58008A1183120313EB006B08EE009030AF008A
:100D6800A030B0003C30B1006F08EB00EC016B081C
:100D7800A3006C08A4000A168A15B2260A128A1162
:100D8800831203132308B2002408B3002508B40013
:100D98000A168A11CF230A128A11831203132F0805
:100DA80083160313C2008312031330088316031338
:100DB800C30083120313310883160313C400903051
:100DC80083120313AF00A030B0003C30B1006E08AE
:100DD800EB00EC016B08A3006C08A4000A168A1546
:100DE800B2260A128A11831203132308B2002408B8
:100DF800B3002508B4000A168A11CF230A128A11F3
:100E0800831203132F0883160313BF0083120313DF
:100E1800300883160313C0008312031331088316A6
:100E28000313C100773083120313EB006B08E20051
:100E380083160313420883120313E3008316031374
:100E4800430883120313E400831603134408831230
:100E58000313E500831603133F0883120313E60008
:100E680083160313400883120313E7008316031342
:100E7800410883120313E8007A08EC00ED016C08BE
:100E8800E9006D08EA00C5300A128A1528250A12F9
:100E98008A11F701F70A02300A168A1563260A1220
:100EA8008A11C530F6000030F7000A168A11DC20D6
:100EB8000A128A11C5300A168A1500260A128A11E2
:100EC8000D300A168A158D250A128A110A300A165B
:100ED8008A158D250A128A11831203138C1E752F09
:100EE800762F902F1A08EB006B08F8002B30780645
:100EF800031D7F2F802F852F7A08013EEB006B089A
:100F0800FA002D307806031D8A2F8B2F902F7A0830
:100F1800FF3EEB006B08FA00033083120313ED0069
:100F28008A30EC005530EB00EB0B982FEC0B982F28
:100F3800ED0B982F862E0A128A110C2883120313A0
:100F4800A101F61FA82FA92FB02FF509F609F50A58
:100F58000319F60AA101A10AF41FB32FB42FB92F60
:100F6800F309F409F30A0319F40A7308740403195A
:100F7800BE2FBF2FEE2FA001A00ACD2F01300310E6
:100F8800F30DF40DFF3E031DC32F0130F700770862
:100F9800A007F41FD02FD12FC22F74087602031D8B
:100FA800D72F73087502031CDA2FDB2FE12F730884
:100FB800F5027408031CF603F60201300310F40C62
:100FC800F30CFF3E031DE22F0130A002031DED2F9D
:100FD800EE2FD12F21080319F22FF32FF82FF5093F
:100FE800F609F50A0319F60A7608F4007508F300FD
:020FF8000800EF
:101004000C3083160313990008008312031320087D
:10101400F3002108F4002208F5000310740D750D87
:10102400F6007608AB002B08031D19281A2823287C
:101034000030A3000030A2000030A1000030A00066
:10104400C3282308F3002408F4002508F50003103E
:10105400740D750DF6007608AA002A08031D3328BE
:10106400342835281A28A117FF30A005FF30A10520
:101074000030A205A417FF30A305FF30A4050030FB
:10108400A5050030A9000030A8000030A7000030FA
:10109400A6007F30AB0298302A07F3007308AB0236
:1010A4001830F3007308AA000130F3000310A60DF2
:1010B400A70DA80DA90DF30B582825082202031D1E
:1010C400692824082102031D692823082002031C1F
:1010D4006C286D2878282308A0022408031C240FF8
:1010E400A1022508031C250AA202261401300310BC
:1010F400A00DA10DA20DFF3E031D79280130AA0207
:10110400031D852886285628AB1F89288A28A428E9
:101114002B08803A973E03189028912892281A2881
:1011240001300310A90CA80CA70CA60CFF3E031D4C
:1011340093280130F3007308AB07031DA228A328EA
:101144009228BB2818302B02031CA928AA28B628E9
:101154001A280130F3000310A60DA70DA80DA90D40
:10116400F30BAD280130AB022B08031DBA28BB28B2
:10117400AB282908A3002808A2002708A1002608F4
:10118400A000080083120313CE006E304E02031C2D
:10119400CC28CD28AA290330C2004208AB004E084F
:1011A400C300C4014308F5004408F6006430F300AA
:1011B4000030F4000A168A1540270A128A157408AA
:1011C40083120313A4007308A3000A30A1000030A3
:1011D400A2000A168A15BA270A128A158312031363
:1011E40021080A168A15CD250A128A15433E840061
:1011F4000A168A110A200A128A1583120313AF00F1
:101204000A168A110A200A128A15B0000A168A11CF
:101214000A200A128A15B1000330C5004508AB0044
:101224004E08C600C7014608A3004708A40064305E
:10123400A1000030A2000A168A15BA270A128A15DC
:101244008312031321080A168A15CD250A128A155A
:101254005E3E84000A168A110A200A128A15831235
:101264000313B2000A168A110A200A128A15B3005F
:101274000A168A110A200A128A15B4000A168A115B
:10128400CF230A128A15831203132F08CB003008C8
:10129400CC003108CD000330C2004208AB004E0838
:1012A400C300C4014308F5004408F6000A30F30003
:1012B4000030F4000A168A1540270A128A157308AA
:1012C4000A168A15CD250A128A15283E84000A16A4
:1012D4008A110A200A128A1583120313AF000A1610
:1012E4008A110A200A128A15B0000A168A110A20E5
:1012F4000A128A15B1004B08B2004C08B3004D081D
:10130400B4000A168A11CF230A128A158312031312
:101314002F08C8003008C9003108CA000030AF00E7
:101324000030B0003F30B1004808B2004908B300B3
:101334004A08B4000A168A11CF230A128A158312A6
:1013440003132F08BF003008C0003108C1006C2A05
:101354000B304E02031CAF29B029392A0330C200D6
:101364004208AB004E08C300C4014308F50044081A
:10137400F6000A30F3000030F4000A168A154027FC
:101384000A128A1573080A168A15CD250A128A15B7
:10139400283E84000A168A110A200A128A1583122A
:1013A4000313AF000A168A110A200A128A15B00024
:1013B4000A168A110A200A128A15B1000330C500E0
:1013C4004508AB004E08C600C7014608A3004708FD
:1013D400A4000A30A1000030A2000A168A15BA2718
:1013E4000A128A158312031321080A168A15CD25B9
:1013F4000A128A15433E84000A168A110A200A1228
:101404008A1583120313B2000A168A110A200A12DB
:101414008A15B3000A168A110A200A128A15B40022
:101424000A168A11CF230A128A15831203132F086E
:10143400CB003008CC003108CD000030AF000030C4
:10144400B0003F30B1004B08B2004C08B3004D0867
:10145400B4000A168A11CF230A128A1583120313C1
:101464002F08BF003008C0003108C1006C2A0030CA
:10147400AF000030B0003F30B1000330C20042087A
:10148400AB004E080A168A15CD250A128A15283E85
:1014940084000A168A110A200A128A158312031379
:1014A400B2000A168A110A200A128A15B3000A1613
:1014B4008A110A200A128A15B4000A168A11CF2347
:1014C4000A128A15831203132F08BF003008C000C4
:1014D4003108C100080083120313C700C71F732A11
:1014E400742ACF2BC709C70A4708803A123E031C47
:1014F4007C2A7D2A3B2B0330C2004208AB004708FC
:10150400F500F601F51BF6036430F3000030F40037
:101514000A128A11A2270A128A1574088312031365
:10152400A5007308A4000A30A2000030A3000A1624
:101534008A11E0210A128A158312031322080A165B
:101544008A15CD250A128A15433E84000A168A118B
:101554000A200A128A1583120313AF000A168A118D
:101564000A200A128A15B0000A168A110A200A12E1
:101574008A15B1000330C3004308AB004708A40038
:10158400A501A41BA5036430A2000030A3000A1621
:101594008A11E0210A128A158312031322080A16FB
:1015A4008A15CD250A128A155E3E84000A168A1110
:1015B4000A200A128A1583120313B2000A168A112A
:1015C4000A200A128A15B3000A168A110A200A127E
:1015D4008A15B4000A168A11CF230A128A158312B7
:1015E40003132F08C4003008C5003108C6000330B7
:1015F400C2004208AB004708F500F601F51BF603EC
:101604000A30F3000030F4000A128A11A2270A12E9
:101614008A1573080A168A15CD250A128A15283EDA
:1016240084000A168A110A200A128A1583120313E7
:10163400AF000A168A110A200A128A15B0000A1687
:101644008A110A200A128A15B1004408B20045081A
:10165400B3004608B4000A168A11CF230A128A1569
:10166400831203132F08BF003008C0003108C100E3
:10167400272D4708803A753E031C412B422BAE2B85
:101684000330C2004208AB004708F500F601F51B21
:10169400F6030A30F3000030F4000A128A11A2277C
:1016A4000A128A1573080A168A15CD250A128A1594
:1016B400283E84000A168A110A200A128A15831207
:1016C4000313AF000A168A110A200A128A15B00001
:1016D4000A168A110A200A128A15B1000330C300BF
:1016E4004308AB004708A400A501A41BA5030A30C6
:1016F400A2000030A3000A168A11E0210A128A15FA
:101704008312031322080A168A15CD250A128A1594
:10171400433E84000A168A110A200A128A1583128B
:101724000313B2000A168A110A200A128A15B3009A
:101734000A168A110A200A128A15B4000A168A1196
:10174400CF230A128A15831203132F08BF0030080F
:10175400C0003108C100272D0330C2004208AB008D
:1017640047080A168A15CD250A128A15283E8400D0
:101774000A168A110A200A128A1583120313BF005B
:101784000A168A110A200A128A15C0000A168A113A
:101794000A200A128A15C100272D4708803A123EF2
:1017A400031CD52BD62B942C0330C2004208AB006B
:1017B4004708F500F601F51BF6036430F30000302A
:1017C400F4000A128A11A2270A128A1574088312D5
:1017D4000313A5007308A4000A30A2000030A3007C
:1017E4000A168A11E0210A128A15831203132208A9
:1017F4000A168A15CD250A128A151C3E84000A167B
:101804008A110A200A128A1583120313AF000A16DA
:101814008A110A200A128A15B0000A168A110A20AF
:101824000A128A15B1000330C3004308AB0047080D
:10183400A400A501A41BA5036430A2000030A300EA
:101844000A168A11E0210A128A1583120313220848
:101854000A168A15CD250A128A15373E84000A16FF
:101864008A110A200A128A1583120313B2000A1677
:101874008A110A200A128A15B3000A168A110A204C
:101884000A128A15B4000A168A11CF230A128A157D
:10189400831203132F08C4003008C5003108C600A2
:1018A4000330C2004208AB004708F500F601F51BFF
:1018B400F6030A30F3000030F4000A128A11A2275A
:1018C4000A128A1573080A168A15CD250A128A1572
:1018D400013E84000A168A110A200A128A1583120C
:1018E4000313AF000A168A110A200A128A15B000DF
:1018F4000A168A110A200A128A15B1004408B20095
:101904004508B3004608B4000A168A11CF230A1208
:101914008A15831203132F08BF003008C000310852
:10192400C100272D4708803A753E031C9A2C9B2C36
:10193400072D0330C2004208AB004708F500F6014A
:10194400F51BF6030A30F3000030F4000A128A1182
:10195400A2270A128A1573080A168A15CD250A12B7
:101964008A15013E84000A168A110A200A128A1571
:1019740083120313AF000A168A110A200A128A1569
:10198400B0000A168A110A200A128A15B10003301F
:10199400C3004308AB004708A400A501A41BA5038A
:1019A4000A30A2000030A3000A168A11E0210A12AC
:1019B4008A158312031322080A168A15CD250A12E2
:1019C4008A151C3E84000A168A110A200A128A15F6
:1019D40083120313B2000A168A110A200A128A1506
:1019E400B3000A168A110A200A128A15B4000A16CC
:1019F4008A11CF230A128A15831203132F08BF00FA
:101A04003008C0003108C100272D0330C20042084D
:101A1400AB0047080A168A15CD250A128A15013E1D
:101A240084000A168A110A200A128A1583120313E3
:101A3400BF000A168A110A200A128A15C0000A1663
:101A44008A110A200A128A15C1000800831603139A
:101A5400BB006330A0002008A9000A128A114B2E93
:101A640025303E060319372D382D442D3E08A0009D
:101A74003B0884002008831380000130A000200864
:101A8400BB072F2DAC01AD01AA01AB0183120313D7
:101A9400620884000A168A110A200A128A150A1694
:101AA4008A15A6250A128A15031C592D5A2DA02D14
:101AB40083160313AC01AD010A30F3000030F400C7
:101AC400831603132D08F6002C08F5000A168A1550
:101AD400DB260A128A15740883160313AD007308F3
:101AE400AC0083120313620884000A168A110A20C8
:101AF4000A128A15D03E83160313A000FF30031880
:101B04000030A1002008AC070318AD0A2108AD0776
:101B14000130A000200883120313E2076208840046
:101B24000A168A110A200A128A150A168A15A62587
:101B34000A128A1503189F2DA02D5E2D83120313FC
:101B4400620884000A168A110A200A128A152E3A9B
:101B5400031DAD2DAE2D002E831603132B1701305C
:101B6400A000200883120313E20783160313BC01A9
:101B7400BD01EE2D0A30F3000030F4008316031388
:101B84003D08F6003C08F5000A168A15DB260A1201
:101B94008A15740883160313BD007308BC008312EE
:101BA4000313620884000A168A110A200A128A158D
:101BB400D03E83160313A000FF3003180030A100A9
:101BC4002008BC070318BD0A2108BD070130A00086
:101BD400200883120313E2078312620884000A16A2
:101BE4008A110A200A128A150A168A15A6250A12CB
:101BF4008A150318FE2DFF2DBC2D082E8316031302
:101C0400BC01BD012B16082E2B152C2E013083127E
:101C14000313E207FF30620784000A168A110A20C0
:101C24000A128A1583160313BE00A000A10121081D
:101C3400003A03191E2E2F2D2008003A0319FD2FF8
:101C4400643A03192C2E023A0319062E0F3A03198B
:101C54002C2E2F2D00302A05A00007302B05A100C3
:101C6400200821040319372E3A2E0A128A119C2CBB
:101C74002B1E3D2E3E2E422E0630BC000030BD00F1
:101C84002908840083130008B800840A0008B900F6
:101C9400840A0008BA000330A0002008A907380805
:101CA40083120313A000831603133908831203134A
:101CB400A100831603133A0883120313A200003011
:101CC400A3000030A4000030A5000A168A150627D8
:101CD4000A128A1503186F2E702E892E8316031389
:101CE4003808F3003908F4003A08F5000A168A1592
:101CF40083250A128A15730883160313B80074081F
:101D0400B9007508BA000330AA040030AB04831686
:101D14000313B601B7013A08390438040319932EA2
:101D2400942EA22FB830840083130008A000840AE4
:101D34000008A100840A0008A200840A0008A30085
:101D44000F300310A30CA20CA10CA00CFF3E031D2A
:101D5400A32EFF302005A40000302105A50024088F
:101D6400823EB60025080318013EFF3EB700FF304F
:101D7400B6070318B70AFF30B7070330F300003083
:101D8400F4003708F6003608F5000A168A15DB2633
:101D94000A128A15740883160313B7007308B60071
:101DA4000A3083120313A2000030A3008316031326
:101DB400370883120313A50083160313360883120E
:101DC4000313A4000A168A11E0210A128A15831249
:101DD4000313230883160313B70083120313220883
:101DE40083160313B600B71FF82EF92EFF2EFF300B
:101DF400B6070318B70AFF30B7073603FF3A0A12CB
:101E04008A156D220A128A15831203133F0883165A
:101E14000313AE0083120313400883160313AF00A9
:101E240083120313410883160313B0003808831286
:101E34000313AF0083160313390883120313B0008E
:101E4400831603133A0883120313B1008316031392
:101E54002E0883120313B200831603132F08831270
:101E64000313B30083160313300883120313B4005F
:101E74000A168A11CF230A128A15831203132F0814
:101E840083160313AE00831203133008831603135F
:101E9400AF0083120313310883160313B0002E0816
:101EA40083120313A000831603132F088312031352
:101EB400A10083160313300883120313A200003019
:101EC400A3008030A4003F30A5000A168A15062717
:101ED4000A128A1503186F2F702F792FFF3083167B
:101EE4000313B6070318B70AFF30B707A22F8316E8
:101EF40003132E0883120313A000831603132F0861
:101F040083120313A10083160313300883120313EF
:101F1400A2000030A3002030A4004130A5000A161E
:101F24008A1506270A128A15031C992F9A2FA22FA5
:101F3400013083160313B6070318B70A0030B70736
:101F4400831603133D08803AFF0080307F02031D8F
:101F5400AD2F0D303C020318B02FB12FEA2F83169A
:101F640003133C080A128A15C4200A128A15831224
:101F740003133F08CF004008D0004108D100831666
:101F84000313380883120313D2008316031339088A
:101F940083120313D300831603133A088312031323
:101FA400D4000A168A11CA260A128A158312031348
:101FB4004F0883160313B8008312031350088316C3
:101FC4000313B90083120313510883160313BA00D1
:101FD400831603133708803AFF0080307F02031D05
:101FE400F52F0A3036020318FA2F0A128A11232811
:101FF4000A128A115A280A128A11632EFF1B0A2810
:1020040083137F1883170008840A0319FF0A080042
:1020140010308A000408840A8207003400348034B3
:102024003F340034203441340034C8344234003462
:102034007A34443440341C3446345034C334473442
:10204400243474344934973418344B34BC34BE3497
:102054004C346B346E344E34033415345034793488
:10206400AD346034F33449347134003480343F3453
:10207400CD34CC343D34D73423343C34123483341B
:102084003A34B734D1343834C63427343734383456
:1020940086343534C034D6343334CC342B343234EF
:1020A400703489343034E734DB342E34E5343C3452
:1020B4001E344234A2340D3401340034003400346C
:1020C4000A340034003400346434003400340034FE
:1020D400E83403340034003410342734003400343A
:1020E400A034863401340034403442340F34003494
:1020F40080349634983400340034E134F5340534B3
:102104000034CA349A343B34253432342E343134D6
:10211400663420342034253432342E343134663459
:10212400203420342534643400345634313420349B
:102134002034203456343234203420342034433490
:082144004F344E3454340034D2
:102152008E3083120313A7002708A800BD28013080
:102162000310A60CA50CA40CA30CFF3E031DB12862
:102172000130A7002708A807FF302605031DC22843
:10218200C328B0282308F3002408F4002508F5002A
:102192002808A7002708F600F7010A168A11C122AB
:1021A2000A168A11730883120313A3007408A40089
:1021B2007508A500080083120313A301A4010529D1
:1021C20023087607A1007708A0000318A00AA31F1E
:1021D200EB28A003831203132008A2002208FF00A9
:1021E200210884000A168A1100200A168A110A168A
:1021F2008A15E4250A168A11013083120313A307F4
:102202000318A40A0030A40723087607A100770860
:10221200A0000318A00AA31F0F29A003831203130F
:102222002008A2002208FF00210884000A168A1151
:1022320000200A168A11003A031D20292129E128CB
:1022420008008312031330082F042E042D040319EF
:102252002B292C296F29F501F50A3C290130F400BC
:102262000310AD0DAE0DAF0DB00DF40B31290130E1
:10227200F4007408F507B01F3F2940292F293008C0
:102282003402031D4E292F083302031D4E292E0846
:102292003202031D4E292D083102031C51295229F5
:1022A20060292D08B1022E08031C2E0FB2022F083E
:1022B200031C2F0FB3023008031C300FB40201308D
:1022C2000310B00CAF0CAE0CAD0CFF3E031D612928
:1022D2000130F502031D6E296F2940293408B00030
:1022E2003308AF003208AE003108AD0008000030FC
:1022F20083120313AB000030AA000030A9000030A3
:10230200A8002308220421042004031989298A2908
:10231200D729AC01AC0A9A290130F3000310A00DB1
:10232200A10DA20DA30DF30B8F290130F300730849
:10233200AC07A31F9D299E298D290130F3000310AC
:10234200A80DA90DAA0DAB0DF30BA0292308270296
:10235200031DB52922082602031DB52921082502DD
:10236200031DB52920082402031CB829B929C8294C
:102372002008A4022108031C210FA5022208031C25
:10238200220FA6022308031C230FA70228140130E0
:102392000310A30CA20CA10CA00CFF3E031DC92923
:1023A2000130AC02031DD629D7299E292B08A30090
:1023B2002A08A2002908A1002808A0000800831208
:1023C2000313A801A31FE629E729EE29A209A309FD
:1023D200A20A0319A30AA801A80AA51FF129F22932
:1023E200FB29A409A509A40A0319A50A0130A6001C
:1023F2002608A806A901AA01220823040319022A11
:10240200032A3A2AA701A70A112A01300310A20DB2
:10241200A30DFF3E031D072A0130A6002608A707C9
:10242200A31F142A152A062A01300310A90DAA0D8A
:10243200FF3E031D162A23082502031D222A220815
:102442002402031C252A262A2D2A2208A402230854
:10245200031CA503A502291401300310A30CA20C2E
:10246200FF3E031D2E2A0130A702031D392A3A2AF4
:10247200152A280803193E2A3F2A442AA909AA092B
:10248200A90A0319AA0A2A08A3002908A200080017
:102492001A3083120313A100F730A000A00B4F2AB9
:1024A200A10B4F2A542A30300A168A151E260A1604
:1024B2008A11073083120313A1007C30A000A00B05
:1024C200602AA10B602A000030300A168A151E26E7
:1024D2000A168A11203083120313A000A00B6F2A60
:1024E200000030300A168A151E260A168A1120307C
:1024F20083120313A000A00B7C2A000038300A16B6
:102502008A151E260A168A11133083120313A0009D
:10251200A00B892A08300A168A151E260A168A1165
:10252200133083120313A000A00B952A01300A1660
:102532008A151E260A168A11073083120313A10078
:102542007C30A000A00BA32AA10BA32A0000063016
:102552000A168A151E260A168A11133083120313CD
:10256200A000A00BB22A0C300A168A151E260A16E3
:102572008A11133083120313A000A00BBE2A080095
:1025820076080319C52AC62ACD2A7508740473046D
:10259200031DCC2ACD2AE22A0030F3000030F400D9
:1025A2000030F500422B013083120313A0002008F3
:1025B200F60701300310F50CF40CF30CFF3E031D7B
:1025C200DB2AFE307505031DE72AE82AD42A012BEF
:1025D200013083120313A0002008F6070130F3072D
:1025E200003003180130F407003003180130F507FA
:1025F20001300310F50CF40CF30CFF3E031DFA2A14
:10260200FF307505031D062B072BE92A122B01301B
:10261200F60201300310F30DF40DF50DFF3E031D1C
:102622000B2BF41B152B162B1C2B023076020318D6
:102632001B2B1C2B082B76181F2B202B262BFF3035
:10264200F3057F30F405FF30F5050310F60C76082C
:1026520083120313A000A101A20110300310A00DE8
:10266200A10DA20DFF3E031D2F2B2008F30421080C
:10267200F4042208F50477080319402B412B422B5E
:10268200F5170800831203134808CC004908CD004F
:102692004A08CE0003104D0D4E0DCF004F08D50055
:1026A2005508031D552B562B5F2B0030CB000030F5
:1026B200CA000030C9000030C800CE2B4808CC0048
:1026C2004908CD004A08CE0017300310CE0CCD0CBD
:1026D200CC0CFF3E031D662B4C08CF004F08D000E8
:1026E200C917FF30C805FF30C9050030CA054808C0
:1026F200D1004908D2004A08D300D4018E30D50255
:10270200D51F842B852B9F2B5508803A8F3E0318AB
:102712008B2B8C2B8D2B562B01300310D40CD30C0E
:10272200D20CD10CFF3E031D8E2B0130CC004C0885
:10273200D507031D9D2B9E2B8D2BB62B18305502D2
:10274200031CA42BA52BB12B562B0130CC0003105C
:10275200D10DD20DD30DD40DCC0BA82B0130D50247
:102762005508031DB52BB62BA62B50080319BA2BFF
:10277200BB2BC62BD109D209D309D409D10A03191B
:10278200D20A0319D30A0319D40A5408CB005308F6
:10279200CA005208C9005108C80008008312031376
:1027A2002F08B5003008B6003108B7000310360D07
:1027B200370DB8003808B9003908031DE12BE22BA8
:1027C200E92B0030AF000030B0000030B100B32C74
:1027D2003208B5003308B6003408B7000310360DCE
:1027E200370DB8003808BE003E08031DF92BFA2B3E
:1027F200012C0030AF000030B0000030B100B32C2B
:102802003E087B3EB5003508B9072F08B5003008F1
:10281200B6003108B70010300310B70CB60CB50C77
:10282200FF3E031D0D2C3508B8003808BE003208E3
:10283200B5003308B6003408B70010300310B70CE7
:10284200B60CB50CFF3E031D1F2C3508B800380826
:10285200BE068030B5003508BE05B017B317FF308D
:10286200B205FF30B3050030B4050030BA000030C5
:10287200BB000030BC000730B5003508BD002F1C7E
:10288200432C442C542C3208BA0733080311031882
:10289200330A03194D2CBB07340803110318340AF9
:1028A2000319542CBC0701300310B10CB00CAF0C4F
:1028B200FF3E031D552C01300310B20DB30DB40DB4
:1028C200FF3E031D5D2C0130BD02031D692C6A2CE5
:1028D200402C0930B5003508BD002F1C712C722C1C
:1028E200822C3208BA07330803110318330A03197A
:1028F2007B2CBB07340803110318340A0319822CFA
:10290200BC0701300310B10CB00CAF0CFF3E031D2D
:10291200832C01300310BC0CBB0CBA0CFF3E031D10
:102922008B2C0130BD02031D972C982C6E2C3A087B
:10293200F3003B08F4003C08F5003908B5003508FF
:10294200F6003E08B6003608F7000A168A11C122C0
:102952000A168A11730883120313AF007408B000B9
:102962007508B1000800F500831203131F083F39F0
:1029720040389F00831603139F01592D05148316B7
:1029820003170814C330831203139F058D2D85147A
:10299200831603178814831203131F08C3390438DC
:1029A2009F008D2D05158316031708158312031337
:1029B2001F08C33908389F008D2D8515831603170C
:1029C2008815831203131F08C3390C389F008D2DFD
:1029D2008516831603170816831203131F08C339BB
:1029E20010389F008D2D0914831603178816831241
:1029F20003131F08C33914389F008D2D89148316C1
:102A020003170817831203131F08C33918389F00CE
:102A12008D2D0915831603178817831203131F08B8
:102A2200C3391C389F008D2D061583160317091410
:102A3200831203131F08C33920389F008D2D86157A
:102A4200831603178914831203131F08C33924380A
:102A52009F008D2D86148316031709158312031305
:102A62001F08C33928389F008D2D061683160317B9
:102A72008915831203131F08C3392C389F008D2D2B
:102A82000614831603170916831203131F08C3398A
:102A920030389F008D2D86168316031789168312F0
:102AA20003131F08C33934389F008D2D00309C2D2D
:102AB2007508F300F4017408003A0319612D572DCB
:102AC2007308003A0319BF2C013A0319C82C033AC0
:102AD2000319D32C013A0319DE2C073A0319E92C06
:102AE200013A0319F42C033A0319FF2C013A031992
:102AF2000A2D0F3A0319152D013A0319202D033A15
:102B020003192B2D013A0319362D073A0319412DCA
:102B1200013A03194C2D572D1F145330F300F30BB8
:102B2200902D831203139F149F1C982D992D9A2D7B
:102B3200952D1F101E080800203084008313000802
:102B420083120313A600840A0008A700840A00085F
:102B5200A800840A0008A9000310280D290DAA0064
:102B62002A08B3003308031DB72DB82DC12D00303C
:102B7200A3000030A2000030A1000030A000C92E46
:102B8200233084000008A600840A0008A700840AF3
:102B92000008A800840A0008A9000310280D290DC6
:102BA200AA002A08B2003208031DD82DD92DDA2D29
:102BB200B82D2030840000308004840A0030800464
:102BC200840A80308004840A00308004203084002B
:102BD200FF308005840AFF308005840AFF308005BB
:102BE200840A003080052330840000308004840A87
:102BF20000308004840A80308004840A003080041B
:102C020023308400FF308005840AFF308005840A67
:102C1200FF308005840A003080050030B1000030AA
:102C2200B0000030AF000030AE007F30B302A03001
:102C32003207A6002608B3022030A6002608B200FA
:102C42000130A6000310AE0DAF0DB00DB10DA60BF5
:102C5200232E233084000008A600840A0008A7005F
:102C6200840A0008A800840A0008A9002030840011
:102C72000008AA00840A0008AB00840A0008AC001D
:102C8200840A0008AD0029082D02031D522E2808CF
:102C92002C02031D522E27082B02031D522E26083A
:102CA2002A02031C552E562E792E2330840000084A
:102CB200A600840A0008A700840A0008A800840A63
:102CC2000008A9002030840026088002840A270810
:102CD200031C270F8002840A2808031C280F800285
:102CE200840A2908031C290A8002033084022E1454
:102CF200203084000310800D840A800D840A800D28
:102D0200840A800D8403840384030130B202031D0C
:102D12008B2E8C2E212EB31F8F2E902EAA2E33088F
:102D2200803A9F3E0318962E972E982EB82D01308A
:102D32000310B10CB00CAF0CAE0CFF3E031D992E6C
:102D42000130A6002608B307031DA82EA92E982E2F
:102D5200C12E20303302031CAF2EB02EBC2EB82D54
:102D62000130A6000310AE0DAF0DB00DB10DA60BD4
:102D7200B32E0130B3023308031DC02EC12EB12E73
:102D82003108A3003008A2002F08A1002E08A000DD
:102D92000800831203134F08D5005008D6005108CB
:102DA200D7000310560D570DD8005808DB00520803
:102DB200D5005308D6005408D7000310560D570DFE
:102DC200D8005808DA005B080319E82EE92EF92E1C
:102DD2005A085B020318EE2EEF2E002F5A08D50078
:102DE2005B08D50219305502031CF82EF92E002F6C
:102DF2005208CF005308D0005408D100FF2F5A08C0
:102E02000319042F052F152F5B085A0203180A2FE6
:102E12000B2F162F5B08D5005A08D5021930550220
:102E2200031C142F152F162FFF2F0630D50055081F
:102E3200D900D11F1D2F1E2F1F2FD917D41F222FAC
:102E4200232F242F5917D017FF30CF05FF30D0057D
:102E52000030D105D317FF30D205FF30D305003043
:102E6200D4055A085B020318372F382F642F01301C
:102E72000310D20DD30DD40DFF3E031D392F0130A7
:102E8200DA025A085B060319472F482F5D2F0130DB
:102E9200D90259080739031D4F2F502F382F5D2FA4
:102EA20001300310D10CD00CCF0CFF3E031D522F6A
:102EB2000130D5005508DB075B085A06031D622F57
:102EC200632F512F952F5B085A020318692F6A2F1F
:102ED200952F01300310CF0DD00DD10DFF3E031DF4
:102EE2006B2F0130DB025A085B060319792F7A2F08
:102EF2008F2F0130D90259080739031D812F822FE4
:102F02006A2F8F2F01300310D40CD30CD20CFF3E4A
:102F1200031D842F0130D5005508DA075B085A06D5
:102F2200031D942F952F832FD91F982F992FA92FE7
:102F3200FF30CF06FF30D006FF30D1060130CF0779
:102F4200003003180130D007003003180130D107D8
:102F5200591FAC2FAD2FBD2FFF30D206FF30D30645
:102F6200FF30D4060130D207003003180130D307F6
:102F7200003003180130D407D9014F08D207500896
:102F820003110318500A0319C72FD307510803115D
:102F92000318510A0319CE2FD407D41FD12FD22FD1
:102FA200E42FFF30D206FF30D306FF30D4060130C3
:102FB200D207003003180130D30700300318013064
:102FC200D407D901D90A5208F3005308F40054086F
:102FD200F5005B08D5005508F6005908D6005608DA
:102FE200F7000A168A11C1220A168A11730883127F
:0E2FF2000313CF007408D0007508D10008004A
:103AC200831203138C1E662D672D612D1A080800C0
:103AD2008312031398171813981218169A010800E4
:103AE20064008001840A0406031900340406722D5E
:103AF2008316031398131813981618121811981096
:103B0200181008007508740473040319892D8A2D8E
:103B12008C2D8030F5060800F30083160313981CE1
:103B2200932D942D8E2D7308831203139900080090
:103B320000300A168A151E260A168A1501300A1640
:103B42008A151E260A168A150800F400F3013A3077
:103B520074020318AD2DAE2DB62D30307402031C45
:103B6200B32DB42DB62DF301F30A730C080083169E
:103B720003178801890183120313880189018701D0
:103B8200831603138501880189010B178C16831292
:103B920003138C128B17080083120313AE00AD01BE
:103BA2002E1CD42DD52DD92D2B08AC002C08AD07F9
:103BB2000310AB0D0310AE0C2E08031DE12DE22DF8
:103BC200D12D2D080800F50083120313091475087E
:103BD2000A168A157C270A168A158312031389147A
:103BE200F22DF32D0000831203138910F82DF92D05
:103BF20000001030F400F40BFC2D00000800F5006A
:103C0200F601122E76087507F40074088400000885
:103C12000A168A158D250A168A150130F4007408D1
:103C2200F60776087507F400740884008313000809
:103C3200031D1C2E1D2E032E0800F60083120313F3
:103C4200091076080A168A157C270A168A15831225
:103C5200031389142C2E2D2E0000831203138910B6
:103C6200322E332E00000330F5009730F400F40BAF
:103C7200382EF50B382E3D2E0800831203135E08F2
:103C82005D045C040319462E472E492E8030DE0661
:103C92005F08CF006008D0006108D1005C08D20044
:103CA2005D08D3005E08D4000A168A11CA260A16D5
:103CB2008A15831203134F08DC005008DD005108F7
:103CC200DE00080083120313A1002103031D6A2EE4
:103CD2006B2E772E7708803EA0002008A2002208D3
:103CE2000A168A151E260A168A15882E0230210601
:103CF200031D7C2E7D2E882E7708C03EA000200852
:103D0200A20022080A168A151E260A168A1508001B
:103D1200831203138C1E8E2E8F2EAB2E8C120A163C
:103D22008A1561250A168A15F0007008F9002B30F1
:103D32007906031D9D2E9E2EA32E0130F0007008E1
:103D4200FA07AB2E2D307906031DA82EA92EAB2E15
:103D52000130FA0272088A00710E8300FE0E7E0E96
:103D6200090083120313A801A41FB82EB92EC02E76
:103D7200A309A409A30A0319A40AA801A80A2308EB
:103D8200F3002408F400F5018E30A6002608F600A0
:103D92002808A7002708F7000A168A11C1220A1666
:103DA2008A15730883120313A3007408A40075080C
:103DB200A500080083120313A001A101731CE22EC7
:103DC200E32EEB2E750883120313A0070318A10A32
:103DD2007608A10701300310F50DF60DFF3E031D15
:103DE200EC2E01300310F40CF30CFF3E031DF32EF6
:103DF20073087404031DFE2EFF2EDF2E831203139D
:103E02002108F4002008F300080083120313A21F04
:103E12000B2F0C2F192F2008003CA0002108031C97
:103E2200210F003CA1002208031C220F803CA200AB
:103E3200A51F1C2F1D2F2A2F2308003CA300240896
:103E4200031C240F003CA4002508031C250F803C02
:103E5200A5008030A2068030A50625082202031D97
:103E6200382F24082102031D382F230820020318AB
:103E72003B2F3C2F3E2F03103F2F031408007308E3
:103E820074040319452F462F772F83120313A001C1
:103E9200A00A562F01300310F30DF40DFF3E031D4F
:103EA2004C2F0130F7007708A007F41F592F5A2F23
:103EB2004B2F74087602031D602F73087502031CD2
:103EC200632F642F6A2F7308F5027408031CF6032C
:103ED200F60201300310F40CF30CFF3E031D6B2FAE
:103EE2000130A002031D762F772F5A2F7608F40097
:103EF2007508F3000800F300731C802F812F852FB3
:103F0200831203130814882F831203130810F31C5F
:103F12008B2F8C2F8E2F88148F2F8810731D922F2A
:103F2200932F952F0815962F0811F31D992F9A2F6D
:103F32009C2F88159D2F8811731EA02FA12FA32FB0
:103F42000816A42F0812F31EA72FA82FAA2F88162F
:103F5200AB2F8812731FAE2FAF2FB12F0817B22FBE
:103F62000813F31FB52FB62FB82F8817B92F881350
:103F7200080083120313A701A801210822040319D0
:103F8200C32FC42FFB2FA601A60AD22F0130031084
:103F9200A10DA20DFF3E031DC82F0130A50025086B
:103FA200A607A21FD52FD62FC72F01300310A70DAA
:103FB200A80DFF3E031DD72F22082402031DE32F65
:103FC20021082302031CE62FE72FEE2F2108A3026C
:103FD2002208031CA403A402271401300310A20C1C
:103FE200A10CFF3E031DEF2F0130A602031DFA2F85
:0E3FF200FB2FD62F2808A2002708A1000800E8
:04400E00D420FF3F7C
:00000001FF
