:020000040000FA
:060000000A128A110E280D
:10000800FE00030EF3000408F4000A08F5000A12C3
:100018008A1127280A128A11112883133030FD000B
:100028000130FE003330FF00203084000A128A11AC
:1000380024210A128A11F601F701F801F901830156
:100048000A128A11D5280B1C2A282B283C2883122F
:10005800031306183028312835280130F2007208B9
:1000680087078618382839283B28013087020B1063
:100078000B1D3F284028742876087704031D45285F
:1000880046285928831203138910091488017A080D
:100098000A128A1150210A128A1183120313880046
:1000A8000130F6000030F7006F2876037704031D4F
:1000B8005E285F286F2883120313091089148801AA
:1000C8007B080A128A1150210A128A11831203131B
:1000D8008800F601F7010B110A308312031381001F
:1000E800831203130C1F79287A2893281F0CF20017
:1000F800720C0F39003A031D822883288B280A12B4
:100108008A115F210A128A11F2007208F900103070
:10011800F200F20B8D280000831203130C137508EC
:100128008A0074088400730E8300FE0E7E0E090098
:1001380001308316031788008901831603130514F9
:100148008701880189010614861486138312031314
:1001580085018701880186018901831603130F131E
:100168008F160F160F1481128111011181100110C1
:10017800811303309500161496140A128A1143212C
:100188000A128A11831603130C17831203130C1314
:100198008B170B1783160313161496148B150B1055
:1001A80008000A128A119C200A128A11831203136A
:1001B8009F1479080F39B6003608FB0079080A122F
:1001C8008A1101210A128A110F3983120313B6000A
:1001D8003608FA000A128A115B210A128A11831260
:1001E800031307020318F928FA28FC288617DA28C7
:1001F8008613DA280A128A110E2883120313B5000F
:100208003508B00004300310B00CFF3E031D072969
:100218000F303005B10035080F39B2000330031034
:10022800B20DFF3E031D13290310320D3104B30034
:100238003308B400340808007E088A007F0882006A
:100248000A128A1120210A128A118000840A0408DD
:100258007D0603190034FF0A0319FE0A24293F34D6
:1002680006345B344F3466346D347D3407347F3460
:100278006F3477347C3439345E3479347134C33034
:10028800831203139F059F171F171F148316031349
:100298009F131F129F120800F1007108203E84006E
:1002A80083130008F0007008F8007808080083122B
:0E02B80003131E080800831203131E0808001B
:04400E00C420FF3F8C
:00000001FF
